:020000040800F2
:10000000184B002099010008A1010008A301000875
:10001000A5010008A7010008A901000800000000D0
:1000200000000000000000000000000001010008C6
:10003000AD01000800000000450100089D1B0008FC
:10004000B3010008B3010008B3010008B3010008C0
:10005000B3010008B3010008B3010008B3010008B0
:10006000B3010008B3010008B3010008B3010008A0
:10007000B3010008EB0C0008B3010008010D0008F3
:10008000B3010008B3010008B3010008B301000880
:10009000B3010008B3010008B3010008B301000870
:1000A000B3010008B3010008B3010008B301000860
:1000B000B3010008B3010008B3010008B301000850
:1000C000B3010008B3010008B3010008B301000840
:1000D000B3010008B3010008B3010008B301000830
:1000E000B3010008B3010008B3010008DFF80CD029
:1000F00000F0EEFB00480047D13F0008184B0020FD
:10010000224B19680868B0E8F00F80F30988BFF344
:100110006F8F4FF0000080F311884EF00D0E704786
:100120000000000006480068006880F3088862B696
:1001300061B6BFF34F8FBFF36F8F00DF00BF00BF0B
:1001400008ED00E0EFF30980BFF36F8F0F4B1A68E3
:1001500020E9F00F106008B54FF0BF0080F3118860
:10016000BFF34F8FBFF36F8F04F052FD4FF00000CD
:1001700080F31188BDE8084019680868B0E8F00FFE
:1001800080F30988BFF36F8F704700BFE80100203C
:10019000EFF3058070470000064880470648004797
:1001A000FEE7FEE7FEE7FEE7FEE7FEE7FEE7FEE727
:1001B000FEE7FEE7D11B0008ED0000080649074AEC
:1001C0000868504343F23902104408604008704701
:1001D0000149086070470000480200206D4EC6418A
:1001E00040EA01039B0703D009E008C9121F08C0B9
:1001F000042AFAD203E011F8013B00F8013B521E39
:10020000F9D27047D2B201E000F8012B491EFBD2AF
:1002100070470022F6E710B513460A460446194611
:10022000FFF7F0FF204610BDF0B480EA0102D40FC2
:100230004200B2EB410F02D20246084611464A0084
:1002400042D0C30DDDB2C1F3C752AD1A202D35DA4D
:10025000C1F3160141F4000204B15242C5F1200677
:1002600002FA06F12A411044B3EBD05F23D0C4B1A7
:10027000012DA0EBC35009DCF0BC4FF0004202EAB4
:10028000C352DBB200F5000000F030B9400000F1CD
:10029000807000EBC350A0F1807040EAD17049003B
:1002A00009E0490841EAC071A0EBC35000F5000025
:1002B000400800EBC350F0BC00F00FB961420122CE
:1002C00002EB4101001BF6E7F0BC704781F00041F2
:1002D000AAE780F00040A7E780EA010210B502F02B
:1002E0000043400022D04A001FD0010E01EB1261F2
:1002F000C0F35600C2F3560240F4000042F400027C
:10030000A0FB022000047F39140400D0401C50EAF6
:10031000124001D44000491EC2B20C0604EBD010BA
:10032000401C4008802A02D003E0002010BD20F0CD
:100330000100002900DA0020184310BD30B480EA23
:10034000010202F0004530F0004221F0004013D0DD
:1003500090B1C30DD40DC2F31601C0F31600E41A18
:1003600041F4000140F400027D34914201D3641C49
:1003700000E04900002C02DA30BC002070474FF446
:1003800000000023914201D3891A034340084FEA39
:100390004101F7D151B1914202D14FF0004105E046
:1003A00002D24FF0010101E06FF0010103EBC450F4
:1003B000284430BC00F091B8C10F80EAE0700844D6
:1003C000CA079623002100F091B896230022114617
:1003D00000F08CB820F00040C10DC0F3160040F4CE
:1003E00000007F2901DA00207047962903DCC1F163
:1003F0009601C840704796398840704700F0004227
:1004000030F000400AD0C10D01F56071C0F3160054
:1004100042EA0151C20840071143704700200146DB
:1004200070470000002801DBC0F10040002901DB1B
:10043000C1F1004181427047002801DBC0F100405A
:10044000002901DBC1F100418842704730B50B46FD
:10045000014600202022012409E021FA02F59D42F4
:1004600005D303FA02F5491B04FA02F52844151EC8
:10047000A2F10102F1DC30BD2DE9F05F054600205C
:1004800092469B4688460646814640241BE0284605
:1004900041464746224600F03CFA53465A46C01AA7
:1004A000914110D311461846224600F023FA2D1A26
:1004B00067EB01084F4622460120002100F01AFA9E
:1004C00017EB00094E41201EA4F10104DFDC484671
:1004D00031462A464346BDE8F09F0029A8BF704731
:1004E000401C490008BF20F00100704710B4B0FA6A
:1004F00080FC00FA0CF050EA010404BF10BC704705
:1005000049B1CCF1200421FA04F411FA0CF118BF1E
:10051000012121430843A3EB0C01CB1D4FEA0061ED
:100520004FEA102042BF002010BC704700EBC350C0
:1005300010440029A4BF10BC7047401C490008BFEC
:1005400020F0010010BC7047420005D0C0F3C75234
:100550005242914201DC0020704700EBC1507047CD
:100560002DE9FE4F804681EA0300C00F0C46009043
:1005700021F0004123F00045B8EB0200A94105D26B
:100580004046214690461C460B46024623F000405A
:10059000104347D0270DC7F30A00C3F30A51029056
:1005A000401A019040286BDAC3F3130040F4801B1B
:1005B0000098924620B10023D2EB030A63EB0B0BA9
:1005C00001985946C0F14002504600F093F90646A2
:1005D0000D4650465946019A00F0ABF910EB080061
:1005E0006141002487EA115284EAE7731A4340D03C
:1005F000009A62B3019A012A4FEA075215DC001BE8
:1006000061EB02014FF0004202EA0752CDE90042DD
:10061000001C41F5801132462B4600F0ABF903B0C7
:10062000BDE8F08F40462146F9E7001B61EB02016F
:10063000001C41F5801300185B412018A2F500173B
:1006400047EB030140EAD570B6196D4111E06D0822
:100650004FEA360645EAC0754FEA0752001B61EBC8
:100660000201001C41F5801149084FEA30000019D1
:10067000514132462B4603B0BDE8F04F00F06BB954
:100680000098012240000023D0EB020263EBE073EC
:10069000009821464FEAE074B8EB000061EB0401DA
:1006A000E9E783F000435BE781F0004158E72DE97B
:1006B000FE4F81EA030404F0004421F0004100945D
:1006C0004FF0000B23F0004350EA01045ED052EAE1
:1006D00003045BD0C3F30A54C1F30A552C44A4F2BB
:1006E000F3340194A0FB0254C1F3130141F48011CF
:1006F000C3F3130343F4801301FB024400FB034ED6
:10070000840A970A44EA815447EA8357A4FB07689E
:1007100002958D0A05FB07854FEA932C04FB0C54C8
:100720002705029D4FEA065847EA1637B5EB08053C
:100730006EEB070C870E920E47EA811742EA83128E
:10074000A7FB0201B6EB0B0164EB00042B0D43EA9F
:100750000C335E1844EB1C50DA465146E7FB0201AD
:10076000C5F313044FEA0B3343EA14534FEA043240
:10077000019C43EA0603A4F10C040294009CCDE919
:1007800000B400F0F7F803B0BDE8F08F0020014698
:10079000F9E72DE9F04D81EA030404F0004B21F064
:1007A000004514464FF0000A23F0004150EA0502CC
:1007B00020D054EA01021DD0C5F30A570246C5F302
:1007C0001303C1F31300C1F30A5640F4801543F438
:1007D0008013A7EB0608101BD64608F2FD3873EB12
:1007E000050002D308F1010801E092185B41B8F15D
:1007F000000F03DA00200146BDE8F08D00204FF421
:100800008011064684460EE0171B73EB050705D3DF
:10081000121B63EB050306434CEA010C49084FEA3F
:10082000300092185B4150EA0107EDD152EA030013
:1008300012D082EA040083EA0501084305D0101BA8
:10084000AB4106D20122002306E000224FF0004314
:1008500002E06FF0010253101AEB06004CEB085156
:1008600010EB0A0041EB0B01BDE8F04D00F073B84E
:10087000C1F30A52C1F3130140F2FF3341F4801176
:100880009A4202DA00200146704740F233439A420E
:10089000A2F2334202DC524200F03BB800F02AB828
:1008A00030B5041E71F1000404DB4FF000444042F7
:1008B00064EB0101141E73F1000405DB1C464FF0CC
:1008C0000043524263EB0403994208BF904230BD9B
:1008D000064C074D06E0E06840F0010394E807008D
:1008E00098471034AC42F6D3FFF704FCC8FC00086C
:1008F000E8FC0008202A04DB203A00FA02F100207C
:1009000070479140C2F1200320FA03F3194390404D
:100910007047202A04DB203A21FA02F000217047B8
:1009200021FA02F3D040C2F1200291400843194657
:100930007047202A06DBCB17203A41FA02F043EA3F
:10094000E07306E041FA02F3D040C2F12002914088
:1009500008431946704710B5141E73F1000408DAF5
:10096000401C41F1000192185B411A4301D120F073
:10097000010010BD2DE9F04D92469B4611B1B1FA30
:1009800081F202E0B0FA80F220329046FFF7B2FF27
:1009900004460F4640EA0A0041EA0B0153465A4614
:1009A000084313D0114653EA010019D0C8F14002A0
:1009B0005046FFF7AEFF05460E46504659464246A2
:1009C000FFF798FF084305D0012004E02046394690
:1009D000BDE8F08D0020054346EAE0762C4337431E
:1009E0000A986305E40AA0EB08000022FD0A44EA25
:1009F00047540A3002D500200146E9E701051019E5
:100A00006941DDE9084500196941BDE8F04DA2E7FB
:100A100070B58C1810F8015B15F0070301D110F8C0
:100A2000013B2A1106D110F8012B03E010F8016BED
:100A300001F8016B5B1EF9D12B0705D40023521E70
:100A40000DD401F8013BFAE710F8013BCB1A921CD8
:100A500003E013F8015B01F8015B521EF9D5A142D6
:100A6000D8D3002070BD21B1826842F001028260BB
:100A700003E0826822F001028260704721B182683F
:100A800042F48072826003E0826822F480728260A5
:100A90007047000010B592B004460121480200F0F2
:100AA00081FC0121084600F05DFC4FF4004000F09D
:100AB0004DFC00208DF847000320ADF8440011A93B
:100AC000304800F0D5FA0723012200212E4800F01B
:100AD0009BF80723022201212B4800F095F8002003
:100AE0000C900F904FF460200E9001208DF835008F
:100AF0008DF8340002208DF840000CA9224800F047
:100B00005BF821484C30019080150790002005903B
:100B100002944FF48060089080200690002003909B
:100B2000022004902020099000200B904FF4805068
:100B30000A9001A9154800F0CEF90121134800F0F0
:100B4000F9F801211048FFF799FF01210E48FFF73E
:100B50008AFF0D4800F0B4F800BF0B4800F022F8FF
:100B60000128FAD0084800F0BBF800BF064800F0A2
:100B70000FF80128FAD00121034800F0A6F812B0BE
:100B800010BD0000000801400024014008000240A0
:100B9000014600208A6802F004020AB1012000E048
:100BA00000207047014600208A6802F008020AB15E
:100BB000012000E00020704730B5024600200023ED
:100BC00050680F4C20400D790C6844EA05242043FE
:100BD000506090680B4C2040D1E902542C434D7971
:100BE00044EA450420439060D06A20F470000C7CF5
:100BF000641EE4B2234340EA0350D06230BD0000DB
:100C0000FFFEF0FFFDF7F1FFF0B504460D460020B2
:100C10000021092D11DDE068A5F10A0606EB460763
:100C2000072606FA07F18843A5F10A0606EB4606F1
:100C300003FA06F10843E0600CE0206905EB450784
:100C4000072606FA07F1884305EB450603FA06F185
:100C500008432061072A0FDA606B561E06EB8607F1
:100C60001F2606FA07F18843561E06EB860605FA8C
:100C700006F10843606322E00D2A0FDA206BD61FCD
:100C800006EB86071F2606FA07F18843D61F06EBF8
:100C9000860605FA06F10843206310E0E06AA2F137
:100CA0000D0606EB86071F2606FA07F18843A2F118
:100CB0000D0606EB860605FA06F10843E062F0BD74
:100CC000816841F008018160704721B1826842F477
:100CD000A002826003E0826822F4A0028260704772
:100CE000816841F004018160704710B54FF40070D5
:100CF00000F0D2F818B14FF4007000F00DF810BDFC
:100D000010B54FF4003000F0C7F818B14FF40030C0
:100D100000F002F810BD000000F0805111B103494D
:100D2000086001E002494860704700000404024086
:100D30000000024021B1026842F00102026004E0BA
:100D400002684FF6FE731A400260704701684FF662
:100D5000FE72114001600021016041608160C1604C
:100D60004B49884208D14A490839496841F00F0186
:100D7000474A083A51608AE045491431884208D10F
:100D800043490839496841F0F001414A083A516045
:100D90007DE03F492831884208D13D4908394968FA
:100DA00041F470613A4A083A516070E038493C3188
:100DB000884208D136490839496841F47041344ABB
:100DC000083A516063E032495031884208D13049D5
:100DD0000839496841F470212D4A083A516056E0BB
:100DE0002B496431884208D129490839496841F4BE
:100DF0007001274A083A516049E025497831884214
:100E000008D123490839496841F07061204A083AFD
:100E100051603CE01F49884206D1011F096841F03A
:100E20000F01021F116032E01A491431884208D1C3
:100E30001849091F096841F0F001164A121F116094
:100E400025E014492831884208D11249091F096850
:100E500041F470610F4A121F116018E00D493C31D6
:100E6000884208D10B49091F096841F47041094AB9
:100E7000121F11600BE007495031884207D1054924
:100E8000091F096841F47021024A121F116070475E
:100E9000080002400804024001460020002201F040
:100EA000805313B1054B1A6801E0054B1A6802EA3A
:100EB00001030BB1012000E0002070470004024054
:100EC000000002401AB103680B43036002E00368AC
:100ED0008B430360704710B50022026847F6F07339
:100EE0009A430C6A8B6823430C6923434C69234360
:100EF0008C692343CC6923434C6A23438C6A234384
:100F00001A430260CB6843600B6883604B68C36020
:100F100010BD00000EB50121042000F033FA472077
:100F2000ADF800004FF6FE70ADF804000020ADF8FB
:100F300002006946034800F0FDFE0121014800F06F
:100F400083FE0EBD0008004010B5044603E04FF4D8
:100F50007A7000F007F8201EA4F101018CB2F6D1DE
:100F600010BD000010B504460021054800F0DFFE6A
:100F700000BF034800F083FEA042FADB10BD000072
:100F800000080040014A1060516070475000002086
:100F900010B503490868FFF71DFAC4B2204610BD1A
:100FA0005800002008B501211C2000F0FBF9482062
:100FB0008DF8030047F22030ADF80000694629485B
:100FC00000F056F818208DF803004FF48070ADF84B
:100FD000000003208DF802006946234800F048F81D
:100FE00010208DF803004FF46040ADF8000003209E
:100FF0008DF8020069461D4800F03AF800224FF4CF
:1010000000411A4800F0CCF801224FF4C0411748C3
:1010100000F0C6F84FF49050ADF800006946124851
:1010200000F026F84FF490510F4800F0B5F84FF457
:101030000040ADF8000069460A4800F019F84FF486
:101040000041084800F0A8F810208DF803001C208B
:10105000ADF8000003208DF802006946024800F058
:1010600007F808BD000C01400008014000100140D5
:101070002DE9F0410246002500260020002300242F
:10108000002791F803C00CF00F0591F803C00CF095
:10109000100CBCF1000F03D091F802C04CEA05051A
:1010A00091F800C0BCF1000F31D0146800202BE093
:1010B0004FF0010C0CFA00F3B1F800C00CEA030683
:1010C0009E4220D183004FF00F0C0CFA03F7BC4373
:1010D00005FA03FC4CEA040491F803C0BCF1280FA4
:1010E00006D14FF0010C0CFA00FCC2F814C00AE063
:1010F00091F803C0BCF1480F05D14FF0010C0CFA78
:1011000000FCC2F810C0401C0828D1D31460B1F80C
:1011100000C0BCF1FF0F34DD546800202EE000F168
:10112000080C4FF0010808FA0CF3B1F800C00CEA03
:1011300003069E4221D183004FF00F0C0CFA03F7F7
:10114000BC4305FA03FC4CEA040491F803C0BCF16B
:10115000280F05D100F1080C08FA0CF8C2F8148029
:1011600091F803C0BCF1480F07D100F1080C4FF013
:10117000010808FA0CF8C2F81080401C0828CED3E9
:101180005460BDE8F0810246002093680B400BB12B
:10119000012000E000207047416170470161704705
:1011A0000AB1016100E041617047000008B51020FC
:1011B0008DF803004020ADF8000003208DF80200F8
:1011C00069460748FFF754FF48208DF80300802048
:1011D000ADF8000069460248FFF74AFF08BD00006D
:1011E000000C014070B50024012600BF8021184882
:1011F000FFF7C9FF0128F9D0002513E001224021A3
:101200001348FFF7CDFF002240211148FFF7C8FF28
:10121000640080210E48FFF7B6FF012800D1641C4E
:10122000681CC5B2182DE9DB84F4000400250BE02E
:10123000012240210648FFF7B3FF00224021044865
:10124000FFF7AEFF681CC5B2B542F1DB204670BDAA
:10125000000C014070B5002100230F22C47804B3B4
:10126000154C246804F4E064C4F5E064210AC1F17B
:101270000403CA40447804FA03F1847814402143FB
:1012800009010E4C0678A155047804F01F050124CD
:10129000AC4005786D11AD0005F1E025C5F80041C1
:1012A00009E0047804F01F050124AC40044D0678E1
:1012B000761145F8264070BD0CED00E000E400E03A
:1012C00080E100E002490143024A116070470000DA
:1012D0000000FA050CED00E000B587B00121C8025E
:1012E00000F060F82320ADF810006320ADF8140082
:1012F0000020ADF816008DF8180004A9124800F07F
:1013000019FD6020ADF800000020ADF808000420B1
:10131000ADF802000020ADF8060069460A4800F06A
:10132000B1FC0821084800F0F9FC0121064800F052
:101330007FFC0121044800F093FC0121024800F0E9
:1013400083FC07B000BD0000002C014001460020D6
:10135000034A506820F44040084350607047000042
:101360000010024029B1064A52690243044B5A61F7
:1013700004E0034A52698243014B5A6170470000FE
:101380000010024029B1064AD2690243044BDA61D7
:1013900004E0034AD2698243014BDA6170470000DE
:1013A0000010024029B1064A92690243044B9A6137
:1013B00004E0034A92698243014B9A61704700003E
:1013C0000010024021B1028842F04002028004E095
:1013D00002884FF6BF731A400280704700B58DB087
:1013E00001210846FFF7BEFF1B48FFF7AFFC1B4873
:1013F0000290002003901020049000200590069099
:10140000802007900020089009900A900B900C9083
:1014100002A91148FFF75FFD012202210E48FFF7E4
:1014200051FD002204210C48FFF74CFD4FF4A06051
:10143000FFF748FF0D208DF8040000208DF805000F
:101440000E208DF8060001208DF8070001A8FFF797
:1014500001FF0DB000BD0000300002400C30014023
:1014600010B5084B1B6B4FF6FE742340054C2363ED
:1014700000F10C03A3632346D9635A6391232363CA
:1014800010BD0000000002401AB183880B43838026
:1014900002E083888B4383807047024600201389D3
:1014A0000B400BB1012000E00020704710B5002276
:1014B000028802F441520B884C8823438C882343D2
:1014C000CC8823430C8923434C8923438C892343B1
:1014D000CC8923431A430280838B4FF2FF7423404D
:1014E00083830B8A038210BD2DE9F04105460C462B
:1014F0001646002715E000BF02212846FFF7CDFF62
:101500000028F9D0288800F4006028B12088A8813C
:10151000701C86B2641C02E02078A881641C781CD0
:1015200087B2B742E7DBBDE8F081000003480068FE
:1015300020F0040001490860704700000C080140D9
:1015400000B587B001210803FFF72CFF0820ADF894
:1015500010004FF44040ADF804004FF48270ADF835
:1015600006000020ADF80800ADF80A00ADF80C0048
:101570004FF40070ADF80E000020ADF81200072007
:10158000ADF8140001A91248FFF790FF012110489F
:10159000FFF718FF012202210D48FFF775FF182001
:1015A0008DF81B00A020ADF8180003208DF81A005C
:1015B00006A90848FFF75CFD04208DF81B004020B9
:1015C000ADF8180006A90348FFF752FD07B000BDAB
:1015D00000300140000801400348006840F004006A
:1015E00001490860704700000C0801402DE9F041F6
:1015F00004460D4616461F46DDF81880A02C01DA79
:10160000802D01DBBDE8F081A019401EA02800DB81
:10161000F8E7E819401E802800DBF3E700F050F9F6
:10162000E919CBB2A119CAB2E0B2294600F052F9C9
:10163000FFF7D2FF7000784382B241460648FFF7B9
:101640000FFF00BF0448008900F080000028F9D196
:1016500000F066F900BFD5E700300140F8B5044658
:101660000D461646A02C01DA802D00DBF8BD00F0F7
:1016700027F9681CC3B2601CC2B22946204600F09C
:1016800029F930128DF80000F0B28DF80100022126
:10169000684600F0C2F900F043F900BFE6E7000039
:1016A000F8B5044614F8017B23E014F8010B009010
:1016B000FFF73CFF012269461148FFF715FF14F8B8
:1016C000015B05F0800625F080053DB1FFF784FF42
:1016D0002A4621460A48FFF707FF2C4446B114F872
:1016E000016BFF2E01D14FF4FA76304600F0DBF9A2
:1016F00000BF381EA7F10101CFB2D6D1F8BD00005E
:10170000003001402DE9F84304460D4616461F46B9
:10171000DDF82080A02C01DA802D01DBBDE8F88304
:10172000A019401EA02802DBC4F1A000C6B2E8192F
:10173000401E802802DBC5F18000C7B200F0C0F86F
:10174000E819401EC3B2A019401EC2B22946204665
:1017500000F0C0F84FEA28208DF8000008F0FF00E4
:101760008DF801003D460BE0344605E00221684655
:1017700000F053F9601EC4B2002CF7DC681EC5B23D
:10178000002DF1DC00F0CCF800BFC7E738B5044607
:101790008023A022002108460094FFF7B3FF38BD44
:1017A0002DE9F04104460E4617469846A02C01DA72
:1017B000802E01DBBDE8F081254606E04246314639
:1017C0002846FFF74BFF681CC5B23819401EA842D7
:1017D000F4DC00BFEEE7000010B500F071F800F097
:1017E00053F80648FFF75CFF0548FFF759FF054827
:1017F000FFF756FF00F094F810BD000014FC00083D
:101800004FFC00085CFC00080348006840F008003A
:1018100001490860704700000C0801400348006857
:1018200020F0080001490860704700000C080140E2
:101830002DE9F04104460D4617461E46DDF8188096
:10184000A02C01DA802D01DBBDE8F08143463A4649
:1018500029462046FFF7A4FFA819401EC1B24346FF
:101860003A462046FFF79CFF43463246294620462B
:1018700000F060F8E119491EC8B2434632462946D5
:1018800000F058F800BFDFE710B5FFF7C7FF0520ED
:1018900000F009F9FFF7B8FF10BD000070B504466D
:1018A0000D462A4621460548FFF7DAFD00BF0348EA
:1018B000008900F080000028F9D170BD003001409F
:1018C0000348006820F010000149086070470000DC
:1018D0000C080140F8B507460C4615461E462A205E
:1018E00000F093F800200090F8B28DF80100E8B203
:1018F0008DF803000421684600F08FF82B2000F0DB
:1019000084F8E0B28DF80100F0B28DF803000421F4
:10191000684600F082F82C2000F077F8F8BD00004F
:101920000348006840F0100001490860704700005B
:101930000C0801402DE9F04106460C461746984632
:10194000A02E01DA802C01DBBDE8F081254606E0FF
:10195000424629463046FFF781FE681CC5B2381959
:10196000401EA842F4DC00BFEEE70FB42DE9F84FAB
:1019700006460F469046DDE90F9A9DF8350038443B
:10198000401EC3B29DF834003044401EC2B23946F6
:101990003046FFF79FFF00242FE0A8F120009DF8BC
:1019A000351000FB01400E9931F810B000251FE002
:1019B0000BFA05F000F4004060B14FEA29208DF8E1
:1019C000000009F0FF008DF801000221684600F0D8
:1019D00024F80CE04FEA2A208DF800000AF0FF00FE
:1019E0008DF801000221684600F017F800BF6D1C59
:1019F0009DF83400A842DBD8641C9DF83500A04255
:101A0000CBD8BDE8F80F5DF814FB01B5FFF78EFDEC
:101A100001216846FFF742FF08BD70B504460D4638
:101A2000FFF7DAFD29462046FFF738FF70BD0FB4F7
:101A30002DE9FE4305460E461446DDE90F87FFF704
:101A40003FFF26E09DF834002844A0280FDB002546
:101A50009DF835003044C6B29DF8350030448028EA
:101A600000DB19E02078202801D1641C11E0012F4F
:101A700009D0CDE901870E9800902278314628469A
:101A80000D9BFFF772FF9DF834002844C5B2641C1B
:101A900000BF20780028D5D100BFFFF741FFBDE887
:101AA000FE035DF814FB10B504462046FFF74CFA20
:101AB00010BD10B500F002F810BD00000CB50020FC
:101AC000019000903348006840F48030314908604C
:101AD00000BF3048006800F4003000900198401CBE
:101AE0000190009818B90198B0F5A06FF1D129487C
:101AF000006800F4003010B10120009001E00020E7
:101B000000900098012843D12348006840F010005D
:101B1000214908600846006820F007000860084670
:101B2000006840F0020008601A484068194948609F
:101B30000846406848600846406840F48060486055
:101B40000846406820F47C1048600846406840F42D
:101B5000E81048600846006840F08070086000BFE8
:101B60000C48006800F000700028F9D0094840686F
:101B700020F00300074948600846406840F0020032
:101B8000486000BF0348406800F00C000828F9D105
:101B90000CBD0000001002400020024010B500BF44
:101BA000BF2080F31188BFF34F8FBFF36F8F00BF4B
:101BB00003F0AEFB18B14FF080500449086000BF3D
:101BC000002080F3118800BF10BD000004ED00E08C
:101BD00010B51348006840F001001149086008463C
:101BE0004068104908400E494860084600680E49A0
:101BF00008400B4908600846006820F4802008600F
:101C00000846406820F4FE0048604FF41F008860DA
:101C1000FFF74FFF4FF000600449086010BD00005F
:101C2000001002400000FFF8FFFFF6FE08ED00E0A4
:101C300021B1028842F08002028004E002884FF65F
:101C40007F731A400280704721B1028842F001027E
:101C5000028004E002884FF6FE731A40028070474B
:101C600031B1B0F8442042F40042A0F8442005E02D
:101C7000B0F84420C2F30E02A0F844207047014699
:101C8000888C704770B5002400220023058C4FF625
:101C9000FE7635400584028C8388048B4FF68F7561
:101CA0002C40B51E2C400D882C43751E2A400D89F2
:101CB0002A434D882A43144DA8420BD0134DA84205
:101CC00008D0134DA84205D0124DA84202D0124DA3
:101CD000A84213D14FF6F7752A404D892A434FF693
:101CE000FB752A408D882A434FF6FF652B404FF63F
:101CF000FF552B408D892B43CD892B438380048353
:101D0000CD888586028470BD002C014000340140DE
:101D10000040014000440140004801400A460021C3
:101D2000018B4FF6F773194011430183704781848B
:101D300070470000002202881D4B98420ED01D4BB8
:101D400098420BD0B0F1804F08D01B4B984205D081
:101D50001A4B984202D01A4B984204D14FF68F7317
:101D60001A404B881A43174B984207D0164B98429B
:101D700004D04FF6FF431A40CB881A4302808B8869
:101D800083850B8803850A4B98420BD0094B9842F8
:101D900008D00E4B984205D00D4B984202D00D4B07
:101DA000984201D10B7A0386012383827047000099
:101DB000002C0140003401400004004000080040B5
:101DC000000C0040001000400014004000400140A2
:101DD000004401400048014000BF4FF0FF310A4875
:101DE000006803F0B3F94FF480510848FFF7D6F9C3
:101DF000502002F0D1FD4FF480510448FFF7CCF998
:101E0000502002F0C9FDE8E71C0000200008014056
:101E100088B0002002F088FE012403F073FA0390DA
:101E200000BF002207A9FE48006803F001F901285D
:101E300032D19DF81C008DF814009DF81D00F94961
:101E400008709DF81E809DF81F60084600788DF888
:101E5000150008460078FEF7B8FA8246F249FEF708
:101E60003BFA8146FEF7B6FAF0490870ED48007873
:101E7000FEF7ABFA8246EE49FEF72EFA8146FEF7F0
:101E8000A9FAEC490870E948007809780844E5495E
:101E90000978081AE849087003F034FA0399401ADF
:101EA000FA2831D9E5490888FEF78FFA8346594662
:101EB000E348FEF743FA82464FF07E51FEF706FAFA
:101EC00081464946DF48FEF739FA0746DD4938467C
:101ED000FEF734FA019001F0B3FFDB490290FEF700
:101EE0002DFA8346D949FEF79FF9824651464FF0B5
:101EF0007E50FEF723FA8146D549FEF7E7F90546FD
:101F0000069503F0FFF90390012C0AD1CB484088D5
:101F1000B0F5FA6F04DD02244FF47A7002F03CFD54
:101F20005DE2022C17D14046FEF74FFA8146294662
:101F3000FEF782FA04D86103C648FFF72DF94EE296
:101F40004FF48041C348FFF729F903244FF47A7016
:101F500002F022FD43E2032C7ED10020BE4908702E
:101F60000320BE4908700020BD4908700120BA490D
:101F700008707CE0B8480078AC490978884210D1F4
:101F8000B848006820F40070B6490860B648006898
:101F900020F40040B44908605A20B4490880042461
:101FA00048E0AD480078AD490978884222DAAC486B
:101FB000007878B9AB48006840F40070A94908601F
:101FC000A948006820F40040A74908602520A749D7
:101FD00008802FE0A348006820F40070A149086041
:101FE000A148006840F400409F49086025209F49AF
:101FF00008801FE09848007898490978884219D1EC
:102000009848006820F40070964908609648006877
:1020100020F40040944908605A2094490880904870
:10202000007880F001008E4908708B480078C01C51
:102030008A4908704FF47A7002F0AEFC7948007853
:10204000401E78490870084600788DF815008DF814
:10205000164000231A4600E011E005A984480068F4
:1020600002F042FF7C480078401C7B4908707A48A7
:1020700000786E49097888427FF77CAFAFE1042C85
:1020800018D16E484088B0F5FA6F04DDE10271485E
:10209000FFF782F8A3E1694840886428EEDA4FF43C
:1020A00000516C48FFF77AF805244FF47A7002F07B
:1020B00073FC94E1052C0AD160484088B0F5FA6FB2
:1020C000DCDD06244FF47A7002F066FC87E1062C12
:1020D00018D14046FEF779F981462946FEF7ACF95A
:1020E00005D84FF480415B48FFF756F877E14FF48D
:1020F00080415848FFF752F807244FF47A7002F0F5
:102100004BFC6CE1072C7DD1002053490870032063
:102110005249087000205249087001204E49087049
:102120007CE04D48007843490978884210D14D48F9
:10213000006820F400704B4908604B48006820F4A8
:102140000040494908605A2048490880082448E06E
:102150004148007841490978884222DA40480078AD
:1021600078B94048006840F400703E4908603E4835
:10217000006820F400403C49086019203B49088071
:102180002FE03848006820F400703649086036486F
:10219000006840F400403449086019203349088041
:1021A0001FE02D4800782D490978884219D12D4823
:1021B000006820F400702B4908602B48006820F468
:1021C0000040294908605A2028490880244800789E
:1021D00080F00100224908701F480078C01C1F4988
:1021E00008704FF47A7002F0D7FB0E480078401E5A
:1021F0000C490870084600788DF815008DF81640D7
:10220000002300E03DE01A4605A91948006802F0E5
:102210006BFE11480078401C0F4908700E4829E0F9
:1022200008000020240000209A99193F2500002072
:102230009A99993E260000202700002000000020E7
:1022400000F07F4500401C4600E076450FCF5B3B29
:10225000339388430010014028000020290000200B
:102260002A0000200C0801400C0C0140342C0140D5
:102270000C00002000785F49097888427FF751AF51
:10228000ADE0082C18D15C484088B0F5FA6F04DD49
:10229000A1025A48FEF780FFA1E057484088642811
:1022A000EEDA4FF400515548FEF778FF09244FF459
:1022B0007A7002F071FB92E0092C5ED1062E16D2E4
:1022C000DFE806F00306090C0F125A2004900FE015
:1022D000102004900CE00C20049009E008200490E9
:1022E00006E00420049003E00020049000E000BF1A
:1022F00000BF4348006840F400704149086041480D
:10230000006820F400403F4908603F490498088075
:102310001AE04FF47A7002F03FFB3C480078401E10
:102320003A4908703A480078401E394908703748E1
:1023300000788DF815008DF8164000231A4605A97F
:102340003448006802F0D0FD314800780028E0D120
:102350002B48006820F4007029490860294800686B
:1023600020F40040274908600020274908800A24FB
:102370004FF4FA6002F010FB31E00A2C19D11E482C
:102380004088B0F5FA6F05DD4FF400511B48FEF7A9
:1023900003FF24E018484088642820DA4FF40051F5
:1023A0001648FEF7FBFE0B244FF47A7002F0F4FAA5
:1023B00015E00B2C05D10C2440F6B83002F0ECFAF5
:1023C0000DE00C2C0BD100231A4619461248006868
:1023D00002F08AFD4FF400410848FEF7DFFE8DF859
:1023E000164000231A4605A90A48006802F07CFD41
:1023F00017E500002600002000000020001001402A
:102400000C0801400C0C0140342C01402400002039
:10241000270000200C0000201C00002088B00120B4
:10242000069000240027F748F749086002F06AFF89
:10243000019000BF02F066FF0199401AFA2817D9EF
:10244000FEF7D0FEF149A0EB010B5846FDF7B4FFB3
:102450008246EF49FDF772FF074600213846FDF737
:10246000E1FF00D20027CDF8137002F04BFF01907E
:102470004FF48071E748FEF786FE08B1012000E0C6
:10248000002005460698854247D0012D45D10023FE
:102490001A461946E048006802F026FD6902DD4848
:1024A000FEF771FEA84202D0601CC4B201E0601EBB
:1024B000C4B2052C00DD0124012C00DA0524012C16
:1024C00003D1D048D049086016E0022C03D1D3488C
:1024D000CD49086010E0032C03D1D148CA490860F7
:1024E0000AE0042C03D1CF48C749086004E0052C5A
:1024F00002D1CD48C4490860C348006880788DF88F
:102500001000C148006800788DF80F00BE480068D0
:102510008088ADF811008DF80E4006954FF480517B
:10252000BC48FEF730FE002855D04FF48051B94822
:10253000FEF729FE00284ED0B8F1000F4BD1002342
:102540001A461946B448006802F0CEFCAE4800684E
:102550004078401CAC4909684870AB480068407836
:10256000052803DD0020A84909684870A6480068CE
:102570004078062827D2DFE800F026030A11181F4A
:102580001420A149096888708DF8100022E01E20EF
:102590009D49096888708DF810001BE028209A4931
:1025A000096888708DF8100014E03C20964909688D
:1025B00088708DF810000DE05F20934909688870DD
:1025C0008DF8100006E000208F49096888708DF8AA
:1025D000100000BF00BF4FF480518E48FEF7D3FDBE
:1025E00008B1012000E0002080464FF400518948E6
:1025F000FEF7C9FD88B34FF400518648FEF7C3FDCE
:1026000058B3B9F1000F51D100231A461946824838
:10261000006802F069FC7C480068C078401C7A4978
:102620000968C87078480068C078052803DD002074
:1026300075490968C87074480068C07806282DD2AA
:10264000DFE800F02C030C141C244FF4C8706E4912
:1026500009688880ADF8110027E027E04FF4487042
:10266000694909688880ADF811001EE04FF47A705E
:10267000654909688880ADF8110016E04FF496604E
:10268000614909688880ADF811000EE04FF4AF6031
:102690005D4909688880ADF8110006E000205A49BC
:1026A00009688880ADF8110000BF00BF4FF40051E9
:1026B0005848FEF768FD08B1012000E0002081467F
:1026C0004FF480415348FEF75EFD002872D0002C85
:1026D00070D04FF480414F48FEF755FD00287FD061
:1026E000079800287CD100231A4619464A480068FA
:1026F00002F0FAFB06208DF80E0020214548FEF777
:1027000042FDE8BB404909680878FDF75EFE824655
:102710003946FDF791FE4ED807208DF80E000020B7
:102720008DF80C008DF80D004FF0E0218869FDF761
:102730004FFDFDF743FD642190FBF1F201FB120B0D
:102740005846FDF739FE824638493846FDF76CFD9C
:1027500051460090FEF716FC01F014F9FEF718FC44
:1027600006462948006880788DF80A0026480068E7
:10277000C0788DF80B008DF809608DF8084000E0F6
:1027800019E000231A4603A92948006802F0ACFBAF
:1027900000231A4602A92748006802F0A5FB14206E
:1027A00002F0FAF82448006802F032F92348006881
:1027B00002F0BAF914E020211648FEF7E4FC10B14B
:1027C00001208DF80C00104909680878FDF7FDFD1F
:1027D00082463946FDF726FE02D801208DF80D000D
:1027E0004FF480410B48FEF7CEFC08B1012000E019
:1027F0000020079000231A4603A90D48006802F044
:1028000073FB17E62C0000204C00002030DE78001F
:10281000806EA748000C01401C0000203200002000
:10282000380000203E00002044000020000040400E
:1028300004000020080000201800002014000020E0
:102840008EB0FD488023A022002100900846FEF7AC
:10285000CDFE00204FF6FF71CDE90110F74840682A
:102860000090F648F6A25A2103681920FFF7DFF816
:1028700000204FF6FF71CDE90110F048406800904C
:10288000EE48F3A26E2103682D20FFF7D0F8002454
:1028900000BF4FF0FF31F148006802F04BFC834667
:1028A000EF48006883457DD100220BA9EC48006801
:1028B00002F0BEFB012876D19DF82E00A84273D00D
:1028C0009DF82E00002870D0002C6ED10020FEF75D
:1028D0005DFF4FF6FF708023A02200210090084684
:1028E000FEF7A6FF4FF6FF73802200216E20FFF750
:1028F00021F84FF6FF7336222A216E20FEF750FF93
:102900004FF6FF73362254216E20FEF749FF002058
:102910004BF2E071CDE90110C84840680090C7480B
:10292000D0A2052103687320FFF781F800204FF43F
:102930007841CDE90110C14840680090BF48CBA262
:10294000322103687820FFF772F800201F21CDE9BB
:102950000110BA4840680090B848C6A25C210368DC
:102960007820FFF764F800204FF6FF71CDE90110E1
:10297000B24840680090B148C0A20821036807200F
:10298000FFF755F800204FF6FF71CDE90110AB4875
:1029900040680090A948BCA2212103680720FFF7E6
:1029A00046F803E001E147E26AE02DE000204FF63F
:1029B000FF71CDE90110A148406800909F48B5A281
:1029C0003A2103680720FFF732F800204FF6FF7125
:1029D000CDE901109948406800909848B1A2532170
:1029E00003680720FFF723F800204FF6FF71CDE9B9
:1029F00001109248406800909048ADA26C21036895
:102A00000720FFF714F801249DF82E0002F030F99A
:102A10009DF82E00062803D09DF82E0007282FD100
:102A200000207E236D22012100900846FEF76AFEF9
:102A30009DF82C0001280FD14FF478404FF6FF711C
:102A4000CDE901107D48406800907C489BA2282178
:102A500003680A20FEF7EBFF9DF82D0001280FD137
:102A60004FF478404FF6FF71CDE90110734840688C
:102A70000090724895A23C2103680A20FEF7D7FF18
:102A80009DF82E50DDF833004946FDF7CBFC1CD0F5
:102A9000012C1AD1DDF83300FDF7B0FC02460B46DD
:102AA000CDE902018DA108A800F0FAF900204BF24F
:102AB000E071CDE901106148406800905F4808AAC4
:102AC000162103686F20FEF7B2FFDDF833909DF802
:102AD0002F00B84216D0012C14D19DF82F2081A1CF
:102AE00007A800F0DDF900204BF2E071CDE90110FC
:102AF000524840680090514807AA16210368832075
:102B0000FEF795FF9DF82F709DF83000B04225D05C
:102B1000012C23D19DF8302074A106A800F0C0F943
:102B20009DF8300058B94E208DF818004F208DF8D0
:102B3000190052208DF81A004D208DF81B0000203E
:102B40004FF47841CDE901103C48406800903B4883
:102B500006AA432103687620FEF769FF9DF83060DE
:102B6000BDF8310040451DD0012C1BD1BDF83120EE
:102B700060A105A800F094F900200A231E226B2111
:102B800000907B20FEF7BEFD00201F21CDE9011043
:102B90002A4840680090294805AA6B2103687B20D9
:102BA000FEF745FFBDF8318046E153480068834594
:102BB000FAD1002209A95048006802F039FA012828
:102BC000F2D19DF82400504535D09DF8240001280D
:102BD00003D12AA0494908601EE09DF8240002287C
:102BE00003D129A04549086016E09DF82400032878
:102BF00003D128A0414908600EE09DF82400042874
:102C000003D128A03D49086006E09DF8240005286E
:102C100002D127A03949086000204FF6A051CDE924
:102C200001100648406800900448036833480521B5
:102C300002680A2064E06EE004570008E00100200A
:102C400057415348494E47204D414348494E45005E
:102C500046555A5A592043415400000010000020A4
:102C600004000020574549474854000054454D5042
:102C7000000000005350494E00000000564149201A
:102C8000424F4E4700000000444F20484F4E20481E
:102C90004F500000444F2054524149204749554F5E
:102CA0004E47000047494154204E4845000000006F
:102CB000444F20544845205448414F004348554113
:102CC00020444F4E472043554100000051554120BC
:102CD00043414E204E414E4700000000252E3166F4
:102CE000000000002F25644B4700000025642A43A4
:102CF00000000000256400000C00002020000020DF
:102D0000FEF795FE4FF6FF701E236F2215210090EF
:102D10000020FEF78DFD9DF824A09DF8252047A1F9
:102D200005A800F0BDF800204FF6A051CDE9011034
:102D3000444840680090434805AA1E2103682820A3
:102D4000FEF775FE0A98FDF759FB02460B46CDE9E2
:102D50000201AFF2780106A800F0A2F800204FF6B9
:102D6000A051CDE90110374840680090354806AAC7
:102D70003C2103682820FEF75AFE9DF8261004988F
:102D8000814256D09DF82600012803D09DF82600E8
:102D9000052803D12CA02F4908603AE09DF82600B1
:102DA000022803D09DF82600062803D12AA029492D
:102DB00008602EE09DF82600032803D129A02549AC
:102DC000086026E09DF82600042807D09DF826001C
:102DD000082803D09DF826000A2803D124A01D4905
:102DE000086016E09DF82600072803D123A01949A2
:102DF00008600EE09DF82600092803D122A015499D
:102E0000086006E09DF826000B2802D121A0114998
:102E1000086000204FF6A051CDE901100948406834
:102E20000090084803680B48502102681920FEF7FB
:102E3000FEFD9DF8260004902BE50000303A256445
:102E400000000000E0010020434150204E554F4358
:102E5000200000002000002044554E204E554F43D6
:102E60002000000044414E472047494154000000E3
:102E70005841204E554F43202000000044414E470A
:102E8000204749552000000044414E4720564154F8
:102E9000200000004749415420584F4E4700000091
:102EA0000FB4084B10B504A902AA039800F0F0F87B
:102EB000044602A9002000F082FC204610BC5DF808
:102EC00014FB0000BF37000800214FF07E50FDF7D3
:102ED00035BA0121FDF738BB00210846FDF72EBAAF
:102EE00002E008C8121F08C1002AFAD170477047D3
:102EF000002001E001C1121F002AFBD17047000031
:102F000001490860704700004C0200202DE9FF5F76
:102F100082B00021DDE90430020DDDF840B003434A
:102F200018D044F61050A2F2FF3242431514119803
:102F300001281FD0A5EB0B00401C5FEA000A4FF0F0
:102F400000064E4FDFF83891B046504615D5CAF10D
:102F5000000413E0119801244AA3012801D16FEA6B
:102F60000B010298119AC0E90031C0E9024206B093
:102F7000BDE8F09FCBF10000DFE704460021404AA6
:102F8000491842EB0450CDE9001012E0E00707D0E9
:102F900032463B4640464946FDF789FB8046894616
:102FA00032463B4610461946FDF781FB06460F4662
:102FB0006410002CEAD1DDE90401DDE90023BAF157
:102FC000000F06DAFDF773FB42464B46FDF76FFB39
:102FD00005E0FDF7DEFB42464B46FDF7DAFB044613
:102FE0000E460022284BFDF75BFC03D84FF0FF3064
:102FF000014607E00022254B20463146FDF7B0FA96
:10300000FDF736FC102409E0002C0ADB0A2200231D
:10301000FDF732FA039B30321A55641E50EA010262
:10302000F2D1641C039AC4F111031444119A012AC9
:1030300003D0012208430DD10AE0084304D0002048
:103040004FF0110B119072E7A3EB0B056D1E0DE015
:103050005B4504DD4FF0000205F1010504E003DAF1
:103060004FF00002A5F10105002AECD00298119959
:10307000C0E90231C0E9004579E7000000001440D2
:103080000000F03F300000000000F0430000E03F8F
:103090002DE9FF4F95B09B468946064600250FE275
:1030A000252877D100242746F84A0121059400E01D
:1030B000044316F8013F203B01FA03F01042F7D118
:1030C00030782A2811D06FF02F033078A0F1300229
:1030D000092A16D8059A44F0020402EB820203EB97
:1030E00042021044761C0590EFE759F8042B059234
:1030F000002A03DA504244F40054059044F00204DC
:10310000761C30782E2816D116F8010F44F00404EE
:103110002A280DD06FF02F023078A0F13003092B50
:1031200009D807EB870302EB4303C718761CF3E7C4
:1031300059F8047B761C30786C280FD006DC4C28BC
:1031400017D068280DD06A2814D104E0742810D054
:103150007A280FD10DE044F400140AE044F48014FE
:1031600001E044F440147278824202D104F58014E4
:10317000761C761C307866280BD013DC582877D064
:1031800009DC002875D04528F6D04628F4D0472819
:103190001AD19DE118E0632835D0642879D06528DC
:1031A00012D195E1702873D008DC6728F1D0692826
:1031B0006FD06E280DD06F2806D1B5E073282CD0C3
:1031C000752875D0782874D05A46179990476D1C89
:1031D00075E1C4F30250022809D003280DD0D9F8B4
:1031E000001004280DD00D6009F1040967E1D9F839
:1031F0000010EA17C1E90052F6E7D9F800100D8077
:10320000F2E70D70F0E719F8041B8DF800100020AC
:103210008DF80100EA46012003E059F804AB4FF0B5
:10322000FF3061074FF0000102D40DE008F1010109
:103230008846B9420FDA8045F8DB1AF808100029F1
:10324000F4D108E008F1010188468142FADB1AF85E
:1032500008100029F6D105985B46A0EB0807214627
:103260003846179A00F094FA284400EB080507E066
:103270004DE029E10DE01AF8010B5A4617999047E5
:10328000B8F10108F7D25B4621463846179A13E198
:1032900042E00A220092C4F302524FF0000A022ACE
:1032A00008D059F804CB032A4FEAEC710AD00DE09C
:1032B00029E02AE009F1070121F00702F2E802C142
:1032C000914609E00FFA8CFC4FEAEC71042A03D115
:1032D0004FFA8CFC4FEAEC71002907DA0A4600210C
:1032E000DCF1000C61EB02012D2202E0220504D585
:1032F0002B228DF80420012203E0E20701D02022D6
:10330000F7E7904659E00A2102E010220DE0102173
:103310004FF0000A00910BE010224FF0000A44F039
:1033200004040827009203E008224FF0000A0092EC
:10333000C4F30252022A05D059F804CB0021032A13
:1033400008D009E009F1070121F00702F2E802C103
:10335000914605E01FFA8CFC042A01D10CF0FF0C09
:103360004FF00008220728D5702806D0009B83F074
:10337000100353EA0A0305D00EE040228DF8042022
:10338000012208E05CEA010206D030228DF8042018
:103390008DF8050002229046009B83F0080353EA53
:1033A0000A030AD15CEA010201D1620705D5302285
:1033B0008DF804204FF001087F1E582804D034A057
:1033C00003900EA802900DE036A0F9E75346604640
:1033D000009AFDF751F884460398825C0298401EDB
:1033E000029002705CEA0100F0D1029806A9081A66
:1033F00000F1200A600702D524F4803400E00127A0
:10340000574502DDA7EB0A0000E0002000EB0A01AF
:10341000009005984144401A0590E00306D45B46AD
:103420002146179A059800F0B3F90544002706E0F5
:1034300001A85A46C05D179990476D1C7F1C4745EF
:10344000F6DBE0030CD55B462146179A059800F0A1
:103450009FF9054404E030205A46179990476D1CA7
:103460000099481E00900029F5DC08E002980299B6
:103470005A460078491C0291179990476D1CBAF181
:103480000001AAF1010AF1DC65E100000928010050
:1034900030313233343536373839616263646566CA
:1034A000000000003031323334353637383941428C
:1034B000434445460000000000F058F90544761CDE
:1034C000307800287FF4ECAD19B02846BDE8F08FC5
:1034D000620700D4062709F1070222F0070CFCE876
:1034E0000223E14603F000485FEA080C02D00FF225
:1034F000702C0DE05FEA045C02D50FF2682C07E047
:103500005FEAC47C02D00FF2602C01E0AFF2700CD5
:103510004FF0FF3823F00043CDF850C065280CD0A1
:1035200006DC452809D046281DD047283DD13DE07E
:10353000662818D067287ED138E00021112F01DBE2
:10354000112000E0781CCDE9000106A90EA8FFF7C4
:10355000DDFCDDE90F010E9A03910021009207F1D5
:10356000010A04914DE04FF000400097CDE90110B1
:1035700006A90EA8FFF7CAFCDDE90F0203920E9B15
:1035800011990022DDF80CA00093049211B9791C66
:1035900000EB010AB7EB0A0004D4C0F1FF3007F1D9
:1035A000010A0490AAEB0700019044E0012F00DA21
:1035B00001270021112F01DD112000E03846CDE95F
:1035C000000106A90EA8FFF7A1FCDDE90F010E9A84
:1035D0000391002104910092BA4621070CD403996B
:1035E000514500DA8A46BAF1010F05DD009AAAF1C9
:1035F0000101515C302908D0B84202DA10F1040F01
:1036000006DA0121CDE9011015E0AAF10101E9E78F
:10361000002805DC049901440491AAEB000102E0B2
:10362000411C514500DD8A460499401A401C019016
:103630004FF000400290200704D40198504501DB70
:10364000CDF8048000208DF84F0002980DF14F074F
:10365000B0F1004F25D02B200E9002984FF00208B9
:1036600000280CDA404202902D200E9007E00A213B
:103670000298FCF7EBFE3031029007F8011DB8F11B
:103680000001A8F10108F2DC02980028EFD1791EB0
:103690000E980870307800F0200040F0450007F8E0
:1036A000020D12A8C01B00F107081498007800B1A1
:1036B000012000EB0A01019801EBE07105984144FB
:1036C000401A401E0590E00306D45B462146179A37
:1036D000059800F05DF805441498007818B15A4632
:1036E000179990476D1CE00324D55B462146179A35
:1036F000059800F04DF805441CE00498002807DB0D
:10370000DDE90301884203DD0098405C179901E080
:10371000179930205A469047049805F10105401C3E
:1037200004900198401E019004D12E205A4617990A
:1037300090476D1CBAF10001AAF1010ADDDC05E039
:1037400017F8010B5A46179990476D1CB8F1000104
:10375000A8F10108F4DC5B462146179A0598ABE610
:103760002D0000002B000000200000002DE9F0419A
:10377000044600251E461746880404D405E0394651
:103780002020B0476D1C641EF9D52846BDE8F081A5
:103790002DE9F041044600251E469046C80301D598
:1037A000302700E02027880404D505E0414638464C
:1037B000B0476D1C641EF9D52846BDE8F0810A6843
:1037C000531C0B60107070472DE9F0470746884680
:1037D0001546002644E0264850F82600445D002C9B
:1037E00011DD601EC4B2234850F8250050F82410A3
:1037F000214850F82500005D204B53F8202040461A
:10380000904781461BE0002C17DAC4F1FF30C4B2A8
:10381000184850F8250050F82410174850F8250093
:10382000005D164B53F820204046904782464FF0EB
:103830007E51FCF74EFD814601E04FF000097868AB
:1038400050F826104846FCF7EDFD01D2484602E04C
:10385000786850F82600396841F82600701CC6B216
:10386000092EB8DB0921386800F00AF8BDE8F087B6
:10387000A401002018010020300100205C0000207D
:103880002DE9F04104460E46002716B93846BDE83A
:10389000F081012E01D12068F9E7276801250CE0AD
:1038A00054F825103846FCF7C7FD01D2384601E030
:1038B00054F825000746681CC5B2B542F0DB38460F
:1038C000E5E700002DE9FC5F82460C462A4A52F8E3
:1038D00024102A4A52F82400FCF7F8FC83462849B1
:1038E000FCF72CFD01900027B846002628E0304662
:1038F000FCF76BFD00900199FCF7EEFC83461E4837
:1039000050F824105846FCF78FFC81462246494661
:103910005046FFF759FF83460199FCF7DDFC054649
:1039200029463846FCF780FC074649462846FCF7FE
:10393000D3FC83464146FCF777FC8046701CC6B238
:10394000652ED4DB00213846FCF76CFD0ED10A4A07
:1039500052F82410094A52F82400FCF765FC83460B
:103960004FF08041FCF7EAFCBDE8FC9F3946404639
:10397000FCF7E4FCF8E70000D8010020DC0100209F
:103980000000C8422DE9F0479CB0002019901A9021
:103990001B9016901790189019A8149016A81590BF
:1039A00024210BA8FCF735FC242102A8FCF731FCEC
:1039B0000BA8009002A801904FF00009002523E019
:1039C0004FF000081AE0994B53F8253053F82810AF
:1039D000974B53F82500974B53F8253013F80830D0
:1039E000DFF854C25CF82320904714A951F8251041
:1039F00041F8280008F1010000F0FF088F48405D01
:103A00004045E0DC681CC5B2022DD9DB002600244D
:103A1000DDE08B48005D012863D18A4802A941F8A6
:103A2000240000255AE0884850F82400465D002E06
:103A300019DD14AA52F82530721E53F8221002AA7A
:103A400052F82400FCF7EEFC03D202A850F8240040
:103A500005E014A850F82510701E51F8200002A9A6
:103A600041F8240038E0002E25DA14A850F825206B
:103A7000C6F1FF3052F820104FF07E50FCF726FCC4
:103A8000824602A850F824105046FCF7D5FC03D219
:103A900002A850F824000AE014A850F82520C6F126
:103AA000FF3052F820104FF07E50FCF70FFC02A9B7
:103AB00041F8240010E002A951F824004FF07E5193
:103AC000FCF7B0FC03D202A850F8240001E04FF04C
:103AD0007E5002A941F82400681CC5B2022DA2DB69
:103AE00061E06FF4000002A941F82400002558E0CD
:103AF000554850F82400465D002E19DD14AA52F8EE
:103B00002530721E53F8221002AA52F82400FCF746
:103B100093FC03D202A850F8240005E014A850F842
:103B20002510701E51F8200002A941F8240036E04B
:103B3000002E25DA14A850F82520C6F1FF3052F8DF
:103B400020104FF07E50FCF7C1FB824602A850F8CF
:103B500024105046FCF766FC03D202A850F824005B
:103B60000AE014A850F82520C6F1FF3052F82010C2
:103B70004FF07E50FCF7AAFB02A941F824000EE0AA
:103B800002A951F824000021FCF756FC03D202A838
:103B900050F8240000E0002002A941F82400681C2D
:103BA000C5B2022DA4DB02AA52F82410274A52F80B
:103BB0002400FCF791FB02A941F8240002A850F868
:103BC00024104846FCF730FB8146601CC4B2092C27
:103BD000FFF61FAF00214846FCF724FC16D1002752
:103BE00011E01B4A52F827101A4A52F82700FCF736
:103BF0001BFB82464FF08041FCF7A0FB164941F8C1
:103C00002700781CC7B2012FEBDB0CE0002708E08F
:103C100039466846FFF756FE0F4941F82700781CE1
:103C2000C7B2012FF4DB1CB0BDE8F087D80000203C
:103C300050000020240100205C00002064000020CF
:103C400058010020FFFF7F7F740100203401002015
:103C5000D8010020DC010020580000202DE9FC5F85
:103C600081460C4625686668A768D4F80C803946FA
:103C70004846FCF7D7FB02D84FF07E501AE0414689
:103C80004846FCF7D9FB01D2002013E041463846F4
:103C9000FCF7C8FB0DD039464046FCF717FB414600
:103CA00001904846FCF715FB00900199FCF746FB94
:103CB00000E00020824631464846FCF7BDFB02D8B2
:103CC0004FF07E501AE029464846FCF7ABFB01D284
:103CD000002013E031462846FCF7A4FB0DD029460E
:103CE0003046FCF7F3FA294601904846FCF7EEFA15
:103CF00000900199FCF722FB00E000208346594622
:103D00005046FCF78FFB02D25046BDE8FC9F584658
:103D1000FBE72DE9F34F83B00C4625686668A7687A
:103D200029463046FCF7D2FA814629460398FCF72B
:103D3000CDFA82464946FCF701FB804631463846BB
:103D4000FCF7C4FA814639460398FCF7C2FA82466A
:103D50004946FCF7F3FA029031462846FCF762FB2D
:103D600012D139463046FCF75DFB0DD12946039848
:103D7000FCF758FB01D1012000E000208146FCF750
:103D80001BFB05B0BDE8F08F31462846FCF74AFB27
:103D90001FD139460398FCF745FB01D8012000E00C
:103DA00000208346FCF708FB814631460398FCF768
:103DB00043FB01D8012000E000200190FCF7FCFA51
:103DC00083460299FCF788FA82464946FCF784FA52
:103DD000D7E739463046FCF725FB1FD1314603981B
:103DE000FCF720FB01D8012000E000208346FCF70F
:103DF000E3FA814629460398FCF71EFB01D801200F
:103E000000E000200190FCF7D7FA83464146FCF71A
:103E100063FA82464946FCF75FFAB2E740460299E8
:103E2000FCF700FB01D2404600E0029880460021EA
:103E30004046FCF701FB01D24046A2E70020A0E784
:103E40002DE9F0410026A0F50001B1F1FE4F7DD231
:103E500000F500226FF07E0101EBE251C2F3025443
:103E600077184FF07E52A0EBC15602EB045557EA8B
:103E7000040047D029463046FCF7D6F9804629464B
:103E80003046FCF723FA4146FCF758FA054601464E
:103E9000FCF722FA80464549FCF71EFA4449FCF734
:103EA000C3F9064641462846FCF716FA3146FCF7A8
:103EB00013FA06463846FCF77FFA07463D49FCF7F9
:103EC0000BFA3D49794451F82410FCF7ADF931461D
:103ED000FCF7AAF9064601212846FCF735FB3146D6
:103EE000FCF7A2F9054638463449FCF7F5F93449A0
:103EF000794451F82410FCF797F92946BDE8F041C0
:103F0000FCF792B94FF07E513046FCF7DFF90546D9
:103F10002C49FCF7E1F92C49FCF786F92946FCF716
:103F2000DBF92A49FCF780F92946FCF7D5F96FF04F
:103F30008241FCF779F9044629460846FCF7CCF99A
:103F40002146FCF7C9F90146284600E003E0BDE838
:103F5000F041FCF769B94FF07F42B2EB400F03D25A
:103F6000BDE8F041FEF7B5BFB0F1FF4F08BFBDE8B7
:103F7000F081B0F1004F06D90120FEF7C1FFBDE886
:103F8000F041FEF7A9BF30F0004105D06FF01606F2
:103F90001721FCF7D9FA5BE70220FEF7B1FFFEF725
:103FA00093FF80F00040BDE8F081000066F1CC3E58
:103FB000AAAA2A3FF4FD0538E0BD00000070313F99
:103FC00094BD000021ED423E0A1180BEC1ABAA3E65
:103FD0001CB5FCF7E7FF3448FCF75CFDFCF79AFFE3
:103FE000FDF77AF9FDF7ACFAFDF7F8F9FDF7F4FB08
:103FF000FDF7DCF80020022103468022CDE9001005
:104000002AA12D4801F04AF92C48012100238022E1
:10401000CDE900102AA12C4801F040F92B480121DC
:1040200000238022CDE9001029A12B4801F036F9A8
:104030000020032103468022CDE9001027A12A4851
:1040400001F02CF900220B21012000F0D6FE2749B7
:10405000086000220421012000F0CFFE24490860FE
:1040600000220821012000F0C8FE22490860022039
:1040700000F0B9FE20490860084601681B48006846
:1040800000F09EFE1C4801681A48006800F098FE87
:1040900003220021012000F0B0FE1849086000F062
:1040A0000DFD00BFFEE70000000000205461736BAF
:1040B0005F5446540000000041280008140000200E
:1040C0005461736B5F5200001D240008180000202B
:1040D0005461736B5F430000111E00085461736BE1
:1040E0005F42757A7A657200D91D000804000020CD
:1040F000080000200C000020100000201C00002000
:104100002DE9F04105460E46264807682648006816
:10411000001D00F09DFB50B92348006890F82C105A
:104120000120884021490968814320480160681CBA
:10413000D8B9D6B11E4948681B49096888601A4930
:1041400082680968CA6018490968091D8268516057
:1041500015490968091D8160154A134909684A61B2
:1041600011460968491C11601AE07C190E48006864
:104170004460BC4207D20C480168091D0D48006824
:1041800000F090FB0CE008480168091D0A4800682F
:1041900000F088FB09480068844201D207480460A7
:1041A000BDE8F081FC010020E801002000020020B1
:1041B00004030020F0010020EC0100201802002080
:1041C00010B5044600F094FB2F480068401C2E49AF
:1041D00008602E48006840B92C4804600846006812
:1041E00001280DD100F074F90AE02948006838B9B7
:1041F00026480068C06AE16A884201D82348046002
:1042000024480068401C2349086094F82C100120C1
:1042100088402149096808431F490860E16A01EBA9
:1042200081011E4A02EB81014868A0608268E26059
:10423000211D826851608160E16A01EB8101174AAA
:1042400002EB81026261E16A01EB8101134A52F8DB
:104250002110491CE26A02EB8202104B43F8221043
:1042600000F058FB0A48006868B108480068C06A56
:10427000E16A884207D24FF0805009490860BFF3D5
:104280004F8FBFF36F8F10BDF8010020E8010020B1
:10429000040200201402002000020020500200202E
:1042A00004ED00E010B516E000F022FB0C48C068F9
:1042B000C468201D00F0CCFA0A480068401E094975
:1042C000086009480068401E0749086000F022FBAA
:1042D000204600F055F8044800680028E4D110BDDD
:1042E000F0020020F8010020F401002070B504461F
:1042F0000D46206C70B1216CE0680144E160D4E9A6
:104300000210884201D32168E1602846226CE168EE
:10431000FBF766FF70BD2DE9F04104460F461546D8
:104320004FF00008A66B206C28B37DB93946226C8B
:104330006068FBF755FF216C606808446060D4E951
:104340000101884217D32068606014E03946226C6E
:10435000E068FBF745FF216CE068411AE1602168E5
:10436000E068884203D2216CA068411AE160022D06
:1043700001D106B1761E701CA0634046BDE8F081F5
:1043800010B50446206B00F0D5FA204600F0D2FAB2
:1043900010BD000030B54FF48843154800F0070405
:1043A0002CB1C01D20F00700114C041B1B1B024642
:1043B000104C226000240F4D6C60D018083820F09B
:1043C00007000D4C206000240B4D2D686C600A4DD9
:1043D0002D682C601146441A4C60074C24680C6010
:1043E000064D4C682C60064D4C682C6030BD0000BA
:1043F000180300202C020020340200203C02002080
:104400003802002000BFFFF74DFF06480068012872
:10441000F9D94FF0805004490860BFF34F8FBFF3C4
:104420006F8FF0E75002002004ED00E02DE9F0412D
:1044300006460D4617469846069C0DB9246000E0D6
:104440002760E66325640121204600F0FDFC002082
:10445000A064BDE8F0812DE9FF5F80460E469146DD
:10446000DDE90E7A109CA9F10100216B01EB800BB4
:104470002BF0070B7EB1002507E0715D04F13400DD
:104480004155705D00B902E06D1C102DF5D300BFE1
:10449000002143200155052F00D30427E762201D8A
:1044A00000F0FDF904F1180000F0F9F92461C7F1FA
:1044B0000500A061646241465846039A00F0B6F9CF
:1044C0002060BAF1000F01D0CAF80040BDE8FF9F9C
:1044D00010B5002407E004EB84010F4A02EB8100D1
:1044E00000F0D0F9641C052CF5D30C4800F0CAF993
:1044F0000B4800F0C7F90B4800F0C4F90A4800F077
:10450000C1F90A4800F0BEF90448094908600448A6
:104510000849086010BD000050020020B4020020CD
:10452000C8020020DC020020F0020020040300206A
:10453000EC010020F001002010B50146164800E013
:10454000006803688B42FBD30246436813448B42E6
:1045500004D143684C682344436001460A464B68D3
:1045600013440468A34211D10C4C03682468A3428D
:1045700008D04B680468646823444B6003681B6878
:104580000B6005E0054B1B680B6001E003680B60E6
:10459000884200D0016010BD2C02002034020020AF
:1045A00070B5054600F0A4F9A86B08B9012400E035
:1045B000002400F0AFF9204670BD70B5054600F04C
:1045C00097F9A86BE96B884201D1012400E000242F
:1045D00000F0A0F9204670BDF1B50098846C00266B
:1045E000A06BE16B884221D294F9455000226946C4
:1045F0002046FFF790FE0646681C60B9606A08B95D
:10460000012000E0002080B904F1240000F048FF00
:1046100058B1012609E000F02FF90746BD4203D248
:10462000681C40B284F8450000BF00BF3046F8BDAA
:1046300009480068006808B9012000E0002020B1A6
:104640004FF0FF300549086005E003480068C06886
:104650000068024908607047EC0100201802002041
:1046600000BFBF2080F31188BFF34F8FBFF36F8F60
:1046700000BF00BFFEE7000010B5014600200A465B
:104680000B4C5369A34201D1012300E0002373B115
:10469000084C936AA34201D1012300E0002333B9FF
:1046A000936A0BB9012300E0002303B1012010BD80
:1046B00004030020DC02002070B5044600F018F965
:1046C00094F9455019E0A06C30B12046FFF784FF03
:1046D00088B100F087F90EE0606A08B9012000E0B7
:1046E000002038B904F1240000F0DAFE18B100F01F
:1046F00079F900E003E0681E45B2002DE3DC00BF5D
:10470000FF2084F8450000F005F900F0F1F894F975
:10471000445010E0206908B9012000E0002048B9A9
:1047200004F1100000F0BCFE08B100F05BF9681E57
:1047300045B200E001E0002DECDC00BFFF2084F872
:10474000440000F0E7F870BD2DE9F04705464FF052
:10475000000900F055FA3048006808B9FFF71AFE62
:1047600075B105F00700C0F11008C8F1FF30A8428C
:1047700001D2012000E0002008B9454400E00025F6
:10478000012000EBE570002841D0002D3FD02348E8
:10479000006885423BD8224E3046046801E0264638
:1047A00024686068A84202D220680028F7D11A481D
:1047B000006884422BD0306800F10809206830601E
:1047C0006068401B102807D967196068401B786033
:1047D00065603846FFF7B0FE104960680968081A3E
:1047E0000E490860084600680E490968884203D2ED
:1047F0000A4800680B490860606840F0004060604B
:104800000020206008480068401C0749086000F04C
:10481000CBFE4846BDE8F087340200203802002075
:104820002C0200203C02002040020020001F4FF01C
:1048300080730360001F21F001030360001F034B1E
:104840000360143802602038704700006146000899
:1048500001460A69D1E901309860D1E90103586045
:104860005068884201D18868506000200861106853
:10487000401E1060106870470148006870470000D3
:10488000F801002000F1080141604FF0FF31816024
:1048900000F10801C1600161002101607047002141
:1048A0000161704710B502460B685C1C0CB91069B9
:1048B00007E002F1080000E04068446824689C4278
:1048C000FAD944684C604C68A160886041600A6114
:1048D0001468641C146010BD42684A6093688B6061
:1048E000936859609160086103685B1C03607047BE
:1048F00000BFBF2080F31188BFF34F8FBFF36F8FCE
:1049000000BF03480068401C014908607047000070
:104910002802002006480068401E05490860084635
:10492000006820B9002080F3118800BF00BF7047E5
:104930002802002070B506463546E6B1083D2C46F3
:104940006068C00FB8B12068A8B9606820F0004066
:10495000606000F055F90849606809680844064934
:1049600008602046FFF7E8FD04480068401C034942
:10497000086000F019FE70BD3802002044020020DB
:1049800000204FF0E021086188610248486107205B
:10499000086170473F19010070B50446002544B115
:1049A00000F02EF900212046FFF7AAFB00F0FCFDE5
:1049B00005463DB94FF0805003490860BFF34F8F63
:1049C000BFF36F8F70BD000004ED00E0034909687C
:1049D000016003490968416070470000100200202F
:1049E000FC01002001200149086070470C020020F2
:1049F00070B505460C460548016818312846FFF792
:104A000051FF01212046FFF77BFB70BDE80100202C
:104A100070B505462C4625480068844245D0002CD8
:104A200043D0FFF765FF2046FFF726FED8B3201DD1
:104A3000FFF70EFF94F82C10012088401C490968EC
:104A400008431B490860E16A01EB8101194A02EB46
:104A500081014868A0608268E260211D826851601F
:104A60008160E16A01EB8101124A02EB810262611D
:104A7000E16A01EB81010F4A52F82110491CE26AF8
:104A800002EB82020B4B43F822100849E06A0968E6
:104A9000C96A884207D34FF0805007490860BFF3C6
:104AA0004F8FBFF36F8FFFF735FF70BDE801002018
:104AB000000200205002002004ED00E01CB5124866
:104AC00000210B468022CDE9001010A1114800F012
:104AD000E5FB0446012C14D100BFBF2080F31188F0
:104AE000BFF34F8FBFF36F8F00BF4FF0FF300A4906
:104AF000086001200949086000200949086000F0A9
:104B000045F9084800681CBD1C02002049444C457A
:104B100000000000054400081802002004020020E4
:104B2000FC0100202002002070B50546FFF7E0FEE2
:104B300015B92C48006800E028460446201DFFF700
:104B400087FE78B9E06A00EB8000274951F8200021
:104B500040B994F82C100120884024490968814309
:104B600022480160A06A18B104F11800FFF770FE36
:104B7000211D1F48FFF7B0FE002009E004F14801A5
:104B8000095C012903D1002204F148010A54401CA8
:104B90000128F3DBFFF7BEFE1648006828B1FFF7D7
:104BA000A7FEFFF745FDFFF7B5FE0E4800688442FB
:104BB00017D11048006840B14FF080500E4908608E
:104BC000BFF34F8FBFF36F8F0BE0094800680B49AD
:104BD0000968884203D100200249086001E000F022
:104BE00017F870BDE80100205002002000020020EC
:104BF000040300200402002004ED00E0F80100207E
:104C000002480068401C01490860704724020020E7
:104C10001248006818B10120114908601DE0002009
:104C20000F4908600F480068B0FA80F0C0F11F011A
:104C300001EB81020C4B03EB820042685268426038
:104C400000F108024368934202D142685268426010
:104C50004268D268054B1A6000BF704724020020EA
:104C60000C0200200002002050020020E801002079
:104C700038B50446012C19D14FF6A05012236622F4
:104C8000052100900846FCF7D3FD00201223662280
:104C90001E2100900520FCF7CBFD00201223662288
:104CA000692100900520FCF7C3FD6EE0022C19D1AC
:104CB000002012236622052100900846FCF7B8FD6B
:104CC0004FF6A050122366221E2100900520FCF70B
:104CD000AFFD002012236622372100900520FCF74B
:104CE000A7FD52E0032C19D10020122366221E21B9
:104CF00000900520FCF79CFD4FF6A0501223662281
:104D0000372100900520FCF793FD00201223662236
:104D1000502100900520FCF78BFD36E0042C19D1C2
:104D2000002012236622372100900520FCF780FD29
:104D30004FF6A05012236622502100900520FCF768
:104D400077FD002012236622692100900520FCF7E0
:104D50006FFD1AE0052C18D1002012236622502185
:104D600000900520FCF764FD4FF6A0501223662248
:104D7000692100900520FCF75BFD002012236622CC
:104D8000052100900846FCF753FD38BD10B50A48D0
:104D9000006840F47F00084908600846006840F059
:104DA0007F400860FFF7ECFD002004490860FBF736
:104DB000B9F9002010BD000020ED00E0280200201D
:104DC00070B504460E46FFF793FDA06C08B10025B0
:104DD00005E0A06B08B1002501E0A6640125FFF7FE
:104DE00099FD284670BD70B5044600220421204676
:104DF00000F003F80546284670BD2DE9F843044647
:104E00000E4617460025DCB1681EB0FBF4F0B04238
:104E100016D304FB06F010F14D0F11D804FB06F970
:104E200009F14C00FFF790FC05464DB1A84608F18A
:104E30004C083B464246314620460095FFF7F6FABD
:104E40002846BDE8F88300002DE9F04105460E46EE
:104E500001272C46002C41D0E06B00283ED0B91E23
:104E6000E06BB1FBF0F0216C884237D3FFF740FDD7
:104E7000D4E90F12206801FB0200A0600020A063AB
:104E800020686060E06B401E226C216800FB02110C
:104E9000E160FF2084F8440084F845009EB9206951
:104EA00008B9012000E00020A8B904F1100000F0CA
:104EB000F7FA80B14FF080500A490860BFF34F8F76
:104EC000BFF36F8F07E004F11000FFF7DBFC04F184
:104ED0002400FFF7D7FCFFF71DFD00E00027384650
:104EE000BDE8F08104ED00E02DE9FF4782B0074600
:104EF00088461D464FF000093C4600BFFFF7F8FC0E
:104F0000A06BE16B884201D3022D3ED1D4F838A0CA
:104F10002A4641462046FFF7FEF90646A06C88B1B6
:104F2000022D02D1BAF1000F29D12046FFF754FB20
:104F300028B34FF080503D490860BFF34F8FBFF357
:104F40006F8F1CE0606A08B9012000E0002068B99A
:104F500004F1240000F0A4FA88B14FF080503349E6
:104F60000860BFF34F8FBFF36F8F08E03EB14FF083
:104F700080502E490860BFF34F8FBFF36F8FFFF74C
:104F8000C9FC012006B0BDE8F087049818B9FFF706
:104F9000C1FC0020F6E7B9F1000F04D16846FFF725
:104FA00015FD4FF00109FFF7B5FCFFF729FEFFF7EC
:104FB0009FFC94F94400401C10B9002084F8440080
:104FC00094F94500401C10B9002084F84500FFF713
:104FD000A1FC04A9684600F031F9F8B92046FFF7B2
:104FE000ECFAA8B104F110000499FFF701FD204686
:104FF000FFF762FB00F0D8FA00287FF47FAF4FF094
:1050000080500A490860BFF34F8FBFF36F8F75E779
:105010002046FFF751FB00F0C7FA6FE72046FFF785
:105020004BFB00F0C1FA0020ACE7000004ED00E00B
:105030002DE9F74183B005460F464FF000082C4696
:1050400000BFFFF755FCA66BF6B139462046FFF7C7
:105050004DF9701EA063206908B9012000E000200E
:1050600060B904F1100000F01BFA38B14FF0805025
:105070002F490860BFF34F8FBFF36F8FFFF74AFCD4
:10508000012006B0BDE8F081059818B9FFF742FC91
:105090000020F6E7B8F1000F04D101A8FFF796FC55
:1050A0004FF00108FFF736FCFFF7AAFDFFF720FCE1
:1050B00094F94400401C10B9002084F8440094F98D
:1050C0004500401C10B9002084F84500FFF722FC81
:1050D00005A901A800F0B2F8F0B92046FFF760FA80
:1050E000A0B104F124000599FFF782FC2046FFF7E8
:1050F000E3FA00F059FA0028A3D14FF080500C4990
:105100000860BFF34F8FBFF36F8F9AE72046FFF71A
:10511000D3FA00F049FA94E72046FFF7CDFA00F001
:1051200043FA2046FFF73CFA00288AD00020A8E77F
:1051300004ED00E038B505460C46002000902246FC
:1051400069462846FFF774FF009838BDF3B583B071
:10515000054600272C4600BFFFF7CAFBA66BCEB161
:10516000701EA063206908B9012000E0002060B92A
:1051700004F1100000F094F938B14FF080502E493E
:105180000860BFF34F8FBFF36F8FFFF7C3FB0120A2
:1051900005B0F0BD049818B9FFF7BCFB0020F7E795
:1051A0001FB901A8FFF712FC0127FFF7B3FBFFF7B8
:1051B00027FDFFF79DFB94F94400401C10B9002027
:1051C00084F8440094F94500401C10B9002084F88C
:1051D0004500FFF79FFB04A901A800F02FF8F0B9E4
:1051E0002046FFF7DDF9A0B104F124000499FFF790
:1051F000FFFB2046FFF760FA00F0D6F90028ABD19C
:105200004FF080500C490860BFF34F8FBFF36F8F92
:10521000A2E72046FFF750FA00F0C6F99CE72046C7
:10522000FFF74AFA00F0C0F92046FFF7B9F9002865
:1052300092D00020ACE7000004ED00E070B5064617
:105240000C46FFF755FB134802687068131A206874
:10525000401C08B9002519E00F49306809688842E8
:1052600006D07068904203D80125002020600DE030
:105270002068984207D92068C01A20603046FFF79E
:10528000A5FB002502E0002020600125FFF742FB7E
:10529000284670BDFC010020100200202DE9FF4FC0
:1052A00085B0804689461746DDE912ABB800FFF7A6
:1052B0004BFA064676B14C20FFF746FA04462CB16D
:1052C0004C212046FAF7A5FF266304E03046FFF79D
:1052D00031FB00E000247CB10020CDE900ABCDE93A
:1052E00002403A4649464046089BFFF7B4F820463C
:1052F000FEF766FF012501E04FF0FF35284609B0B3
:10530000BDE8F08F0149086870470000FC010020EB
:105310002DE9F04100275748006800287ED1564803
:105320000068451C544805608DB95448D0F8008089
:1053300053480068514908605148C0F800805148FE
:105340000068401C4F490860FFF772F900BF4E48E3
:105350000068854276D300BF48480068006808B9F5
:10536000012000E0002020B14FF0FF3046490860E6
:1053700067E042480068C068C4686668B54202D207
:10538000414806605DE06069D4E902128A60D4E9B0
:1053900002214A60211D42688A4201D1E1684160D0
:1053A000002262610168491E0160A06A98B1A06A8A
:1053B000D4E907128A60D4E907214A6004F1180190
:1053C00042688A4201D1216A41600022A2620168DA
:1053D000491E016000BF94F82C10012088402B4921
:1053E0000968084329490860E16A01EB8101284AFC
:1053F00002EB81014868A0608268E260211D82683A
:1054000051608160E16A01EB8101214A02EB810276
:105410006261E16A01EB81011D4A00E022E052F87D
:105420002110491CE26A02EB8202194B43F8221058
:105430001849E06A0968C96A88428DD901278BE753
:1054400000E000BF13480068C06A00EB800010490C
:1054500051F82000012800D901270F48006800B149
:10546000012704E00D480068401C0C4908603846DC
:10547000BDE8F08124020020FC010020EC010020A6
:10548000F00100201002002018020020000200207D
:1054900050020020E80100200C0200200802002039
:1054A00070B50346D868C168886AD1E90745A56028
:1054B000D1E90754656001F118044568A54201D19E
:1054C0000C6A446000258D620468641E04603048E4
:1054D000006800283DD14869D1E90245A560D1E9BD
:1054E000025465600C1D4568A54201D1CC6844603A
:1054F00000254D610468641E046091F82C40012071
:10550000A040244C24682043224C2060CC6A04EB49
:105510008404214D05EB8404606888608568CD6053
:105520000C1D85686C608460CC6A04EB84041A4DA1
:1055300005EB84054D61CC6A04EB8404164D55F8E7
:105540002440641CCD6A05EB8505134E46F82540C2
:1055500010E0124C6068C86185680D6201F11804A2
:1055600085686C6084600D4D8D622C462468641CD7
:105570002C6000BF0A4CC86A2468E46AA04204D9BF
:1055800001220120074C206000E00022104670BD7F
:10559000240200200002002050020020DC02002033
:1055A000E80100200C02002070B500240026FFF75F
:1055B0009FF94B480068401E49490860084600684A
:1055C00000287DD147480068002879D05BE0464834
:1055D000C068C468A06AD4E907128A60D4E90721C8
:1055E0004A6004F1180142688A4201D1216A41608F
:1055F0000022A2620168491E01606069D4E90212BA
:105600008A60D4E902214A60211D42688A4201D1A0
:10561000E1684160002262610168491E016094F8FE
:105620002C10012088403149096808432F4908603F
:10563000E16A01EB81012E4A02EB81014868A0601A
:105640008268E260211D826851608160E16A01EB3D
:105650008101274A02EB81026261E16A01EB81016B
:10566000234A52F82110491CE26A02EB8202204BC5
:1056700043F822101F49E06A0968C96A884202D3C8
:1056800001201D4908601848006808B9012000E0A1
:10569000002000289BD00CB1FEF7CAFF1748056810
:1056A00065B100BFFFF734FE10B101201249086058
:1056B0006D1E002DF6D10020104908600E4800E054
:1056C00009E0006838B1012630070D490860BFF3D2
:1056D0004F8FBFF36F8FFFF71DF9304670BD00008D
:1056E00024020020F8010020DC020020000200203B
:1056F00050020020E80100200C02002008020020D7
:1057000004ED00E0F75DFF9EC5D7B5558C30A514BC
:10571000BDB7B596A515B597AD569CF49493947204
:105720008C5283D083CF83F041C729252965420855
:1057300039C7294531852124212429246B0C62CBCA
:105740002904316531453165398541C63986398647
:105750006B2C28E328E341C75228628A62CB6B0C8A
:10576000732C734D6B0B4A0739A55A89732C5AAAAF
:1057700049E741C749E74A0749E749E749E749C7D0
:1057800049A639454185418541C649C641A541C61D
:1057900041C63985318531852103108218A25A8A84
:1057A00062AB290431455A6952694A0839A63185E4
:1057B000294420E3290420C320E320E3734D8C30E7
:1057C000290318A23165314520C318A2108210A206
:1057D000108210A2084031657B6D52285AA939C643
:1057E00008604A484A07314439A641C639855248BB
:1057F00039855A892103316508004A28292429243A
:105800003165210320E241C65AA95207A49128C25A
:1058100010401061108231459C50626920A229031A
:1058200062CA0820106108400020086139E762EB75
:105830006B2C41E842084A4942284A29526A630CC3
:1058400062EC6B4DFF7DEF3CB5759CB39CB2B576B9
:10585000C5F8AD55AD56AD56A4F49CD4949394724E
:105860008C527BD07BAF734D2904316641E839C738
:105870002945318631863186296529443185734D24
:1058800049E7290439853165316539A641E739860B
:105890004A2849E749E749E752285A8A6AEB6ACB1E
:1058A00049E7398641A65A896AEB5A6941C7398660
:1058B00041A649E752495A695248522852075207AD
:1058C00051E741A6396531033985418549C641A56E
:1058D000316439853985210318C210822924736DFA
:1058E00039662904524962EB5A8A52284A0841E72C
:1058F00039862944290420C320E329048C10736DC0
:1059000020C220C33986396520E318A210A2108274
:1059100018A21081188141A67B6D5248526841E659
:10592000082083EF4A0739852903314452483165FD
:10593000318520E3210352491061734D20C341E7B3
:10594000104139A6292439855A8949E79C2F418578
:1059500008000841106118828BEF5A48290320C2C1
:105960005A89106120E318C218A210A218C3630C50
:1059700062EB5AAB42084A494A494A294A495ACB3A
:10598000630C630CFF9EDE9AAD558C51A514BDB718
:10599000BDD7A535AD56AD359CD49CD494728C52F0
:1059A0008C317BCF8C1039A729452945420841E726
:1059B0003166420839A631653165294420E3420742
:1059C00062EB39A6314531653986318539A641E723
:1059D00041C741E741E749E7522849E73986396538
:1059E00041E762CA62CA526941C7398641C74A075C
:1059F00049E741C74A085A8962CA62AA5A485228E6
:105A0000520749E639655207520741A54185396574
:105A100039653144210320C2106118C24A2862CB83
:105A200020C341A662CB6AEB5A694A28522841E753
:105A300039A631652924290320C239A69CB25A8A85
:105A4000186129243985316520E318A218C310A2F2
:105A50001082106118A241C66B2C62CA52694A4872
:105A6000736C5ACA41C64A07080041E7734C2903C0
:105A70003165294439A639A641E7210321034A2883
:105A80000000736D20E3316452485207838D6ACA67
:105A900010201061104108207B4C5A4841A6186123
:105AA0005A6920C21081108118C318E321044A49A1
:105AB0005AEB630C42084A294A4942084A29526A69
:105AC0006B4D630CF77DC5D7AD348C51AD55C5F822
:105AD000AD56AD35AD35A5159CD49CB394728C31C3
